:1000000052C06CC06BC06AC069C068C067C066C0BF
:1000100065C065C063C062C061C060C05FC05EC0D3
:100020005DC05CC05BC0010002000300040005006D
:1000300006000700080009000A000B000C000D0074
:100040000E000F0010001000100010001000100033
:100050001000100010001000100010001000100020
:1000600010001000100001000100010001006400F8
:100070006400640064006400640064006400640060
:10008000640064006400E803640014000A00710264
:10009000C70165013C011A01FA00E000C800B30085
:1000A0009F008C00630011241FBECFE5D4E0DEBFAB
:1000B000CDBF10E0A0E6B0E0E2EDF5E002C00590B3
:1000C0000D92A03AB107D9F710E0A0EAB0E001C064
:1000D0001D92AF3BB107E1F7F7D079C291CF1F92E4
:1000E0000F920FB60F9211248F938091A400882352
:1000F00039F496980000959A8F5F8093A40005C00C
:1001000095980000969A1092A4008F910F900FBEC0
:100110000F901F90189520E030E0E82FF0E0692F55
:1001200070E0822FAF01022E02C0559547950A94C8
:10013000E2F740FF02C0929A01C09298AB0102C060
:10014000559547958A95E2F740FF02C0909A01C005
:1001500090989198919A2F5F3F4F2830310509F779
:100160000895CF93DF93DC0117961C921E92169789
:1001700013961C921E921297E0E6F0E0C0E8D0E0E1
:10018000AF014E5D5F4F61E070E0B09B2DC08D917F
:100190009C911197288139818217930708F44AC0EE
:1001A00016968D919C911797880F991F0196179617
:1001B0009C938E931697B19912C012968D919C9133
:1001C0001397009729F413967C936E93129732C07D
:1001D000880F991F13969C938E9312972BC0159698
:1001E0001C921E92149726C08D919C91119720818C
:1001F000318182179307F0F016968D919C91179795
:10020000880F991F019617969C938E931697B19914
:1002100011C012968D919C911397009729F4139613
:100220007C936E93129706C0880F991F13969C9328
:100230008E93129732962296E417F50709F0A5CF10
:10024000DF91CF910895FC018085918526813781CA
:100250002817390770F42285263030F09695879557
:1002600097838683128606C0978386832F5F2287B3
:1002700001C01286B1991DC082819381248135818C
:100280008217930790F483858B3460F084858C30DB
:1002900030F0369527953583248314860AC08F5F06
:1002A000848707C08F5F838704C095838483148607
:1002B0001386868197819187808724813581822B5F
:1002C000932B978386830895CF93DF9300D0CDB788
:1002D000DEB78FEF81BB17BA83E088BB14BA84E026
:1002E00083BF81E089BF82E487B983E886B9369A03
:1002F000349BFECF84B195B19093A3008093A2006C
:100300008436910530F484E690E09093A3008093C6
:10031000A2000091A2001091A3001093A1000093ED
:10032000A0000F2EF0E6CF2EF0E0DF2EF02D7601AC
:1003300080E090E05C01C501880F991FFC01EA5B39
:10034000FF4F65917491FC01EA5DFF4F2591349157
:10035000209FC001219F900D309F900D112423D12B
:10036000F701619371937F010894A11CB11CFFE018
:10037000AF16B10401F70F2EF0E8AF2EF0E0BF2E5C
:10038000F02D750180E090E04C01C401880F991FA9
:10039000FC01EA57FF4F65917491FC01EA59FF4F48
:1003A00025913491209FC001219F900D309F900D89
:1003B0001124F9D0F701619371937F010894811C96
:1003C000911CFFE08F16910401F778945C2C4D2C62
:1003D000662477243A2C2B2C0F2EF1E4FF2EF02DDF
:1003E00002EB10E0EE246894E6F8C80106969A83C2
:1003F000898392E497B9369A349BFECF84B195B144
:100400009093A3008093A2008436910530F4E4E633
:10041000F0E0F093A300E093A200A090A200B090BF
:10042000A300B092A100A092A000852C942C63019F
:10043000C601880F991FFC01EA5BFF4F659174911B
:10044000FC01EA5DFF4F259134912A9DC0012B9D4F
:10045000900D3A9D900D1124A6D0F40161937193F3
:100460004F010894C11CD11CFFE0CF16D10401F745
:10047000832C922C6301C601880F991FFC01EA5757
:10048000FF4F65917491FC01EA59FF4F259134911A
:100490002A9DC0012B9D900D3A9D900D112483D073
:1004A000F401619371934F010894C11CD11CFFE0CA
:1004B000CF16D10401F782B3877E82BB85EA90E034
:1004C00050DE85EA90E0BFDEEBEAF0E080819181CA
:1004D00022DE93980000949AE5EAF0E011821082FF
:1004E000F7B8369A349BFECF43E6F7B8369A349B7A
:1004F000FECF24B135B1F801808191818217930735
:1005000020F484B195B191838083E7B8369A349B07
:10051000FECF24B135B1E5EAF0E080819181821708
:10052000930720F484B195B1918380834150E9F61B
:1005300082B3877E82BBC80114DEC80184DEE981F4
:10054000FA8180819181E7DD94980000939AF80107
:1005500011821082E7B8369A349BFECF44E6E7B8A2
:10056000369A349BFECF24B135B1E5EAF0E08081C4
:1005700091818217930720F484B195B19183808390
:10058000F7B8369A349BFECF24B135B1F80180819B
:1005900091818217930720F484B195B19183808370
:1005A0004150E9F626CFAA1BBB1B51E107C0AA1F89
:1005B000BB1FA617B70710F0A61BB70B881F991F04
:1005C0005A95A9F780959095BC01CD010895F894AE
:0205D000FFCF5B
:1005D200230046008C00D20018015E01A401EA014A
:1005E20030027602BC02020348038E03D403FC03EA
:1005F20005000A0032006400A000DC00180140017E
:1006020068019001C201FE0144028002DA02E8039D
:00000001FF
