:100000004EC068C067C066C065C064C063C062C0DF
:1000100061C061C05FC05EC05DC05CC07CC05AC0D2
:1000200059C058C057C00100020003000400050079
:1000300006000700080009000A000B000C000D0074
:100040000E000F000F000F000F000F000F000F0039
:100050000F000F000F000F000F000F000F000F0028
:100060000F000100010001006400640064006400EE
:100070006400640064006400640064006400640060
:10008000640014000A007102C70165013C011A01F5
:10009000FA00E000C800B3009F008C006300112448
:1000A0001FBECFE5D4E0DEBFCDBF10E0A0E6B0E0DC
:1000B000EEEEF5E002C005900D92AC39B107D9F72C
:1000C00010E0ACE9B0E001C01D92A83BB107E1F738
:1000D000C8D08BC295CF1F920F920FB60F921124EA
:1000E0008F931092A1001092A0008091B5008823F8
:1000F00039F496980000959A8F5F8093B50005C0FB
:1001000095980000969A1092B5008F910F900FBEAF
:100110000F901F9018951F920F920FB60F921124F7
:100120002F933F938F939F938091B4008823A9F0DE
:1001300024B135B18091A0009091A100821793075E
:1001400030F484B195B19093A1008093A00080E435
:1001500087B9369A1092B40015C024B135B1809198
:100160009C0090919D008217930730F484B195B163
:1001700090939D0080939C0081E487B9369A81E03A
:100180008093B4009F918F913F912F910F900FBE5C
:100190000F901F90189520E030E0E82FF0E0692FD5
:1001A00070E0822FAF01022E02C0559547950A9448
:1001B000E2F740FF02C0929A01C09298AB0102C0E0
:1001C000559547958A95E2F740FF02C0909A01C085
:1001D00090989198919A2F5F3F4F2830310509F7F9
:1001E0000895AC01E0E6F0E0AEE7B0E0BF01625E8A
:1001F0007F4F20E030E0B09B0DC08D919C91119716
:1002000048175907B8F0C901880F991F9C012F5F43
:100210003F4F0BC0808191814817590758F0C901A1
:10022000880F991F9C012F5F3F4F32961296E61759
:10023000F70709F7822F932F08956817790760F45D
:100240004730510530F021E02093B6009695879510
:1002500008951092B600089581E08093B600CB0116
:1002600008958FEF81BB17BA83E088BB14BA84E08E
:1002700083BF81E089BF82E487B983E886B9369A73
:10028000349BFECF84B195B19093AF008093AE00C4
:100290008436910530F484E690E09093AF0080932B
:1002A000AE000091AE001091AF001093AD0000932E
:1002B000AC000F2EF0E6CF2EF0E0DF2EF02D760111
:1002C000C0E0D0E0CE01880F991FFC01EC5BFF4F2E
:1002D00065917491FC01EA5DFF4F25913491209F57
:1002E000C001219F900D309F900D11246AD1F7011C
:1002F000619371937F012196CF30D10519F70F2EAD
:10030000FEE78F2EF0E09F2EF02D7401C0E0D0E0CC
:10031000CE01880F991FFC01E058FF4F6591749141
:10032000FC01EE59FF4F25913491209FC001219F80
:10033000900D309F900D112444D1F701619371937A
:100340007F012196CF30D10519F778947C2C6D2C44
:10035000AA24BB24C1E4D0E4F2E4F7B9369A349B72
:10036000FECF84B195B19093AF008093AE008436F8
:10037000910530F484E690E09093AF008093AE0056
:10038000C090AE00D090AF00D092AD00C092AC0053
:10039000E72CF62C8501C801880F991FFC01EC5B46
:1003A000FF4F65917491FC01EA5DFF4F25913491F7
:1003B0002C9DC0012D9D900D3C9D900D112401D1CF
:1003C000F701619371937F010F5F1F4F0F3011058C
:1003D00011F7E82CF92C8501C801880F991FFC0141
:1003E000E058FF4F65917491FC01EE59FF4F259144
:1003F00034912C9DC0012D9D900D3C9D900D11249C
:10040000E0D0F701619371937F010F5F1F4F0F30B1
:10041000110511F782B3877E82BB80919C00909179
:100420009D00DFDEBC019093AB008093AA00409159
:10043000B0005091B1008091A4009091A500FDDE24
:100440009093AB008093AA008091B600882339F086
:100450001092B600B092B100A092B00009C0809195
:10046000B0009091B10001969093B1008093B000DC
:100470008091AA009091AB009093A5008093A40076
:100480008ADE93980000949AB0929D00A0929C00FE
:10049000C7B9369A349BFECF43E6C7B9369A349B28
:1004A000FECF24B135B18091A0009091A1008217B8
:1004B000930730F484B195B19093A1008093A0008C
:1004C000D7B9369A349BFECF24B135B180919C00C8
:1004D00090919D008217930730F484B195B1909369
:1004E0009D0080939C004150C1F682B3877E82BB01
:1004F0008091A0009091A10074DEBC019093A900AE
:100500008093A8004091B2005091B3008091A60062
:100510009091A70092DE9093A9008093A80080910B
:10052000B600882339F01092B600B092B300A092C2
:10053000B20009C08091B2009091B30001969093EF
:10054000B3008093B2008091A8009091A90090938D
:10055000A7008093A6001FDE94980000939AB092A3
:10056000A100A092A000D7B9369A349BFECF44E6F2
:10057000D7B9369A349BFECF24B135B180919C0017
:1005800090919D008217930730F484B195B19093B8
:100590009D0080939C00C7B9369A349BFECF24B14E
:1005A00035B18091A0009091A1008217930730F49B
:1005B00084B195B19093A1008093A0004150C1F601
:1005C000CBCEAA1BBB1B51E107C0AA1FBB1FA6179E
:1005D000B70710F0A61BB70B881F991F5A95A9F7EC
:0E05E00080959095BC01CD010895F894FFCF51
:1005EE0007000E0014001C00220028003000370007
:1005FE003D0044004B00510059005F0066000A00A8
:10060E0032006400A000DC00180140016801900176
:0C061E00C201FE0144028002DA02E8037F
:00000001FF
