:1000000052C06CC06BC06AC069C068C067C066C0BF
:1000100065C065C063C062C061C060C07CC05EC0B6
:100020005DC05CC05BC0010002000300040005006D
:1000300006000700080009000A000B000C000D0074
:100040000E000F0010001000100010001000100033
:100050001000100010001000100010001000100020
:1000600010001000100001000100010001006400F8
:100070006400640064006400640064006400640060
:10008000640064006400E803640014000A00710264
:10009000C70165013C011A01FA00E000C800B30085
:1000A0009F008C00630011241FBECFE5D4E0DEBFAB
:1000B000CDBF10E0A0E6B0E0E6EEF3E002C00590B0
:1000C0000D92A03AB107D9F710E0A0EAB0E001C064
:1000D0001D92A03CB107E1F732D183C191CF1F92AD
:1000E0000F920FB60F9211248F938091A500882351
:1000F00039F496980000959A8F5F8093A50005C00B
:1001000095980000969A1092A5008F910F900FBEBF
:100110000F901F9018951F920F920FB60F921124F7
:100120002F933F938F939F9384B195B12091A0001B
:10013000222371F42091B3003091B40028173907BD
:1001400020F49093B4008093B30080EC87B90FC083
:10015000213069F42091A6003091A70028173907B3
:1001600020F49093A7008093A60081EC87B980913A
:10017000A0008F5F81708093A0009F918F913F912D
:100180002F910F900FBE0F901F90189520E030E038
:10019000E82FF0E0692F70E0822FAF01022E02C03D
:1001A000559547950A94E2F740FF02C0929A01C024
:1001B0009298AB0102C0559547958A95E2F740FFAA
:1001C00002C0909A01C090989198919A2F5F3F4FEA
:1001D0002830310509F70895CF93DF93DC01179696
:1001E0001C921E92169713961C921E921297E0E68E
:1001F000F0E0C0E8D0E0AF014E5D5F4F61E070E03D
:10020000B09B2DC08D919C911197288139818217C7
:10021000930708F44AC016968D919C911797880F02
:10022000991F019617969C938E931697B19912C0B9
:1002300012968D919C911397009729F413967C93B5
:100240006E93129732C0880F991F13969C938E93CA
:1002500012972BC015961C921E92149726C08D9152
:100260009C9111972081318182179307F0F01696A7
:100270008D919C911797880F991F019617969C93C3
:100280008E931697B19911C012968D919C911397E8
:10029000009729F413967C936E93129706C0880FEB
:1002A000991F13969C938E93129732962296E41779
:1002B000F50709F0A5CFDF91CF910895FC01808566
:1002C0009185268137812817390770F422852630D9
:1002D00030F09695879597838683128606C097831C
:1002E00086832F5F228701C01286B1991DC082814B
:1002F0009381248135818217930790F483858B3411
:1003000060F084858C3030F03695279535832483D2
:1003100014860AC08F5F848707C08F5F838704C0FD
:10032000958384831486138686819781918780873D
:1003300024813581822B932B9783868308958FEFB9
:1003400081BB17BA83E088BB14BA84E083BF81E025
:1003500089BF83E886B9359A339A81EC87B9369A92
:100360007894C6EAD0E00F2EF6E0EF2EFF24F02DB1
:10037000EC0EFD1E03EB10E00F2EF6E0CF2EDD2479
:10038000F02DC00ED11E82B3877E82BBCE0124DF4A
:10039000CE0194DFF70180819181F8DE939800000F
:1003A000949A1982188287EE93E00197F1F700C0C2
:1003B000000082B3877E82BBC8010EDFC8017EDFEA
:1003C000F60180819181E2DE94980000939AF80111
:1003D0001182108287EE93E00197F1F700C00000D0
:0603E000D2CFF894FFCF1C
:1003E600230046008C00D20018015E01A401EA0138
:1003F60030027602BC02020348038E03D403FC03D8
:1004060005000A0032006400A000DC00180140016B
:1004160068019001C201FE0144028002DA02E8038B
:00000001FF
